S01C000041546D6567613332415F4144435F4472697665722E7372656341
S11300000C942A000C943C000C943C000C943C008E
S11300100C943C000C943C000C943C000C943C006C
S11300200C943C000C943C000C943C000C943C005C
S11300300C943C000C943C000C943C000C943C004C
S11300400C943E000C943C000C943C000C943C003A
S11300500C943C0011241FBECFE5D8E0DEBFCDBF19
S113006020E0A0E6B0E001C01D92A236B207E1F79D
S11300700E9469000C946A000C9400001F920F9275
S11300800FB60F9211242F933F934F935F936F9367
S11300907F938F939F93AF93BF93EF93FF93E091DD
S11300A06000F0916100309719F084B195B1099521
S11300B0FF91EF91BF91AF919F918F917F916F913C
S11300C05F914F913F912F910F900FBE0F901F9012
S10B00D01895FFCFF894FFCF4F
S9030000FC
